{
  "contractName": "HTLC",
  "abi": [
    {
      "inputs": [
        {
          "internalType": "address",
          "name": "_recipient",
          "type": "address"
        },
        {
          "internalType": "address",
          "name": "_token",
          "type": "address"
        },
        {
          "internalType": "uint256",
          "name": "_amount",
          "type": "uint256"
        },
        {
          "internalType": "bytes32",
          "name": "_hash",
          "type": "bytes32"
        },
        {
          "internalType": "uint256",
          "name": "_lockTime",
          "type": "uint256"
        }
      ],
      "payable": false,
      "stateMutability": "nonpayable",
      "type": "constructor"
    },
    {
      "constant": true,
      "inputs": [],
      "name": "amount",
      "outputs": [
        {
          "internalType": "uint256",
          "name": "",
          "type": "uint256"
        }
      ],
      "payable": false,
      "stateMutability": "view",
      "type": "function"
    },
    {
      "constant": true,
      "inputs": [],
      "name": "hash",
      "outputs": [
        {
          "internalType": "bytes32",
          "name": "",
          "type": "bytes32"
        }
      ],
      "payable": false,
      "stateMutability": "view",
      "type": "function"
    },
    {
      "constant": true,
      "inputs": [],
      "name": "lockTime",
      "outputs": [
        {
          "internalType": "uint256",
          "name": "",
          "type": "uint256"
        }
      ],
      "payable": false,
      "stateMutability": "view",
      "type": "function"
    },
    {
      "constant": true,
      "inputs": [],
      "name": "owner",
      "outputs": [
        {
          "internalType": "address",
          "name": "",
          "type": "address"
        }
      ],
      "payable": false,
      "stateMutability": "view",
      "type": "function"
    },
    {
      "constant": true,
      "inputs": [],
      "name": "recipient",
      "outputs": [
        {
          "internalType": "address",
          "name": "",
          "type": "address"
        }
      ],
      "payable": false,
      "stateMutability": "view",
      "type": "function"
    },
    {
      "constant": true,
      "inputs": [],
      "name": "secret",
      "outputs": [
        {
          "internalType": "bytes32",
          "name": "",
          "type": "bytes32"
        }
      ],
      "payable": false,
      "stateMutability": "view",
      "type": "function"
    },
    {
      "constant": true,
      "inputs": [],
      "name": "startTime",
      "outputs": [
        {
          "internalType": "uint256",
          "name": "",
          "type": "uint256"
        }
      ],
      "payable": false,
      "stateMutability": "view",
      "type": "function"
    },
    {
      "constant": true,
      "inputs": [],
      "name": "token",
      "outputs": [
        {
          "internalType": "contract IERC20",
          "name": "",
          "type": "address"
        }
      ],
      "payable": false,
      "stateMutability": "view",
      "type": "function"
    },
    {
      "constant": false,
      "inputs": [
        {
          "internalType": "bytes32",
          "name": "_secret",
          "type": "bytes32"
        }
      ],
      "name": "withdraw",
      "outputs": [],
      "payable": false,
      "stateMutability": "nonpayable",
      "type": "function"
    },
    {
      "constant": false,
      "inputs": [],
      "name": "refund",
      "outputs": [],
      "payable": false,
      "stateMutability": "nonpayable",
      "type": "function"
    }
  ],
  "bytecode": "0x608060405261271060015534801561001657600080fd5b50604051610adb380380610adb833981810160405260a081101561003957600080fd5b81019080805190602001909291908051906020019092919080519060200190929190805190602001909291908051906020019092919050505084600460006101000a81548173ffffffffffffffffffffffffffffffffffffffff021916908373ffffffffffffffffffffffffffffffffffffffff16021790555033600560006101000a81548173ffffffffffffffffffffffffffffffffffffffff021916908373ffffffffffffffffffffffffffffffffffffffff1602179055508260068190555083600760006101000a81548173ffffffffffffffffffffffffffffffffffffffff021916908373ffffffffffffffffffffffffffffffffffffffff1602179055508160038190555042600081905550806001819055505050505050610976806101656000396000f3fe608060405234801561001057600080fd5b506004361061009e5760003560e01c80638da5cb5b116100665780638da5cb5b146101515780638e19899e1461019b578063aa8c217c146101c9578063d1efd30d146101e7578063fc0c546a146102055761009e565b806309bd5a60146100a35780630d668087146100c1578063590e1ae3146100df57806366d003ac146100e957806378e9792514610133575b600080fd5b6100ab61024f565b6040518082815260200191505060405180910390f35b6100c9610255565b6040518082815260200191505060405180910390f35b6100e761025b565b005b6100f16103e1565b604051808273ffffffffffffffffffffffffffffffffffffffff1673ffffffffffffffffffffffffffffffffffffffff16815260200191505060405180910390f35b61013b610407565b6040518082815260200191505060405180910390f35b61015961040d565b604051808273ffffffffffffffffffffffffffffffffffffffff1673ffffffffffffffffffffffffffffffffffffffff16815260200191505060405180910390f35b6101c7600480360360208110156101b157600080fd5b8101908080359060200190929190505050610433565b005b6101d16108e9565b6040518082815260200191505060405180910390f35b6101ef6108ef565b6040518082815260200191505060405180910390f35b61020d6108f5565b604051808273ffffffffffffffffffffffffffffffffffffffff1673ffffffffffffffffffffffffffffffffffffffff16815260200191505060405180910390f35b60035481565b60015481565b6001546000540142116102d6576040517f08c379a00000000000000000000000000000000000000000000000000000000081526004018080602001828103825260098152602001807f746f6f206561726c79000000000000000000000000000000000000000000000081525060200191505060405180910390fd5b600760009054906101000a900473ffffffffffffffffffffffffffffffffffffffff1673ffffffffffffffffffffffffffffffffffffffff1663a9059cbb600560009054906101000a900473ffffffffffffffffffffffffffffffffffffffff166006546040518363ffffffff1660e01b8152600401808373ffffffffffffffffffffffffffffffffffffffff1673ffffffffffffffffffffffffffffffffffffffff16815260200182815260200192505050602060405180830381600087803b1580156103a357600080fd5b505af11580156103b7573d6000803e3d6000fd5b505050506040513d60208110156103cd57600080fd5b810190808051906020019092919050505050565b600460009054906101000a900473ffffffffffffffffffffffffffffffffffffffff1681565b60005481565b600560009054906101000a900473ffffffffffffffffffffffffffffffffffffffff1681565b600460009054906101000a900473ffffffffffffffffffffffffffffffffffffffff1673ffffffffffffffffffffffffffffffffffffffff163373ffffffffffffffffffffffffffffffffffffffff16146104d9576040517f08c379a000000000000000000000000000000000000000000000000000000000815260040180806020018281038252602681526020018061091c6026913960400191505060405180910390fd5b600154600054014210610554576040517f08c379a00000000000000000000000000000000000000000000000000000000081526004018080602001828103825260088152602001807f746f6f206c61746500000000000000000000000000000000000000000000000081525060200191505060405180910390fd5b600354600282604051602001808281526020019150506040516020818303038152906040526040518082805190602001908083835b602083106105ac5780518252602082019150602081019050602083039250610589565b6001836020036101000a038019825116818451168082178552505050505050905001915050602060405180830381855afa1580156105ee573d6000803e3d6000fd5b5050506040513d602081101561060357600080fd5b810190808051906020019092919050505014610687576040517f08c379a000000000000000000000000000000000000000000000000000000000815260040180806020018281038252600c8152602001807f77726f6e6720736563726574000000000000000000000000000000000000000081525060200191505060405180910390fd5b6000600760009054906101000a900473ffffffffffffffffffffffffffffffffffffffff1673ffffffffffffffffffffffffffffffffffffffff166370a08231306040518263ffffffff1660e01b8152600401808273ffffffffffffffffffffffffffffffffffffffff1673ffffffffffffffffffffffffffffffffffffffff16815260200191505060206040518083038186803b15801561072857600080fd5b505afa15801561073c573d6000803e3d6000fd5b505050506040513d602081101561075257600080fd5b8101908080519060200190929190505050116107d6576040517f08c379a00000000000000000000000000000000000000000000000000000000081526004018080602001828103825260108152602001807f6e6f7420656e6f7567682066756e64730000000000000000000000000000000081525060200191505060405180910390fd5b80600281905550600760009054906101000a900473ffffffffffffffffffffffffffffffffffffffff1673ffffffffffffffffffffffffffffffffffffffff1663a9059cbb600460009054906101000a900473ffffffffffffffffffffffffffffffffffffffff166006546040518363ffffffff1660e01b8152600401808373ffffffffffffffffffffffffffffffffffffffff1673ffffffffffffffffffffffffffffffffffffffff16815260200182815260200192505050602060405180830381600087803b1580156108aa57600080fd5b505af11580156108be573d6000803e3d6000fd5b505050506040513d60208110156108d457600080fd5b81019080805190602001909291905050505050565b60065481565b60025481565b600760009054906101000a900473ffffffffffffffffffffffffffffffffffffffff168156fe6f6e6c792074686520726563697069656e742063616e20636c61696d207468652066756e6473a265627a7a7231582039d41c67bd94266894b0d3c376fe83fde8b1e0fd66898aaeb58c8989fdec6de564736f6c63430005100032",
  "source": " pragma solidity ^0.5.0;\n\n import 'openzeppelin-solidity/contracts/token/ERC20/IERC20.sol';\n\n contract HTLC {\n   uint public startTime;\n   uint public lockTime = 10000 seconds;\n   bytes32 public secret;\n   bytes32 public hash;\n   address public recipient;\n   address public owner;\n   uint256 public amount;\n   IERC20 public token;\n\n   constructor(address _recipient, address _token, uint256 _amount, bytes32 _hash, uint _lockTime) public {\n     recipient = _recipient;\n     owner = msg.sender;\n     amount = _amount;\n     token = IERC20(_token);\n     hash = _hash;\n     startTime = block.timestamp;\n     lockTime = _lockTime;\n   }\n\n   function withdraw(bytes32 _secret) public {\n     require(msg.sender == recipient, \"only the recipient can claim the funds\");\n     require(block.timestamp < startTime + lockTime, 'too late');\n     require(sha256(abi.encodePacked(_secret)) == hash, 'wrong secret');\n     require(token.balanceOf(address(this)) > 0, 'not enough funds');\n     secret = _secret;\n     token.transfer(recipient, amount);\n   }\n\n   function refund() public {\n     require(block.timestamp > startTime + lockTime, 'too early');\n     token.transfer(owner, amount);\n   }\n }\n",
  "sourcePath": "/Users/samuelmanzanera/Documents/code/js/eth-atomic-swap/truffle/contracts/HTLC.sol",
  "compiler": {
    "name": "solc",
    "version": "0.5.16+commit.9c3226ce.Emscripten.clang"
  },
  "schemaVersion": "3.4.10",
  "updatedAt": "2022-12-19T13:58:41.697Z",
  "devdoc": {
    "methods": {}
  },
  "userdoc": {
    "methods": {}
  }
}