{
  "contractName": "UnirisToken",
  "abi": [
    {
      "inputs": [
        {
          "internalType": "address",
          "name": "_funding_pool_beneficiary",
          "type": "address"
        },
        {
          "internalType": "address",
          "name": "_deliverables_beneficiary",
          "type": "address"
        },
        {
          "internalType": "address",
          "name": "_network_pool_beneficiary",
          "type": "address"
        },
        {
          "internalType": "address",
          "name": "_enhancement_beneficiary",
          "type": "address"
        },
        {
          "internalType": "address",
          "name": "_team_beneficiary",
          "type": "address"
        },
        {
          "internalType": "address",
          "name": "_exch_pool_beneficiary",
          "type": "address"
        },
        {
          "internalType": "address",
          "name": "_marketing_beneficiary",
          "type": "address"
        },
        {
          "internalType": "address",
          "name": "_foundation_beneficiary",
          "type": "address"
        }
      ],
      "payable": false,
      "stateMutability": "nonpayable",
      "type": "constructor"
    },
    {
      "anonymous": false,
      "inputs": [
        {
          "indexed": true,
          "internalType": "address",
          "name": "owner",
          "type": "address"
        },
        {
          "indexed": true,
          "internalType": "address",
          "name": "spender",
          "type": "address"
        },
        {
          "indexed": false,
          "internalType": "uint256",
          "name": "value",
          "type": "uint256"
        }
      ],
      "name": "Approval",
      "type": "event"
    },
    {
      "anonymous": false,
      "inputs": [
        {
          "indexed": false,
          "internalType": "address",
          "name": "account",
          "type": "address"
        }
      ],
      "name": "Paused",
      "type": "event"
    },
    {
      "anonymous": false,
      "inputs": [
        {
          "indexed": true,
          "internalType": "address",
          "name": "account",
          "type": "address"
        }
      ],
      "name": "PauserAdded",
      "type": "event"
    },
    {
      "anonymous": false,
      "inputs": [
        {
          "indexed": true,
          "internalType": "address",
          "name": "account",
          "type": "address"
        }
      ],
      "name": "PauserRemoved",
      "type": "event"
    },
    {
      "anonymous": false,
      "inputs": [
        {
          "indexed": true,
          "internalType": "address",
          "name": "from",
          "type": "address"
        },
        {
          "indexed": true,
          "internalType": "address",
          "name": "to",
          "type": "address"
        },
        {
          "indexed": false,
          "internalType": "uint256",
          "name": "value",
          "type": "uint256"
        }
      ],
      "name": "Transfer",
      "type": "event"
    },
    {
      "anonymous": false,
      "inputs": [
        {
          "indexed": false,
          "internalType": "address",
          "name": "account",
          "type": "address"
        }
      ],
      "name": "Unpaused",
      "type": "event"
    },
    {
      "constant": false,
      "inputs": [
        {
          "internalType": "address",
          "name": "account",
          "type": "address"
        }
      ],
      "name": "addPauser",
      "outputs": [],
      "payable": false,
      "stateMutability": "nonpayable",
      "type": "function"
    },
    {
      "constant": true,
      "inputs": [
        {
          "internalType": "address",
          "name": "owner",
          "type": "address"
        },
        {
          "internalType": "address",
          "name": "spender",
          "type": "address"
        }
      ],
      "name": "allowance",
      "outputs": [
        {
          "internalType": "uint256",
          "name": "",
          "type": "uint256"
        }
      ],
      "payable": false,
      "stateMutability": "view",
      "type": "function"
    },
    {
      "constant": false,
      "inputs": [
        {
          "internalType": "address",
          "name": "spender",
          "type": "address"
        },
        {
          "internalType": "uint256",
          "name": "value",
          "type": "uint256"
        }
      ],
      "name": "approve",
      "outputs": [
        {
          "internalType": "bool",
          "name": "",
          "type": "bool"
        }
      ],
      "payable": false,
      "stateMutability": "nonpayable",
      "type": "function"
    },
    {
      "constant": true,
      "inputs": [
        {
          "internalType": "address",
          "name": "owner",
          "type": "address"
        }
      ],
      "name": "balanceOf",
      "outputs": [
        {
          "internalType": "uint256",
          "name": "",
          "type": "uint256"
        }
      ],
      "payable": false,
      "stateMutability": "view",
      "type": "function"
    },
    {
      "constant": true,
      "inputs": [],
      "name": "decimals",
      "outputs": [
        {
          "internalType": "uint8",
          "name": "",
          "type": "uint8"
        }
      ],
      "payable": false,
      "stateMutability": "view",
      "type": "function"
    },
    {
      "constant": false,
      "inputs": [
        {
          "internalType": "address",
          "name": "spender",
          "type": "address"
        },
        {
          "internalType": "uint256",
          "name": "subtractedValue",
          "type": "uint256"
        }
      ],
      "name": "decreaseAllowance",
      "outputs": [
        {
          "internalType": "bool",
          "name": "success",
          "type": "bool"
        }
      ],
      "payable": false,
      "stateMutability": "nonpayable",
      "type": "function"
    },
    {
      "constant": true,
      "inputs": [],
      "name": "deliverable_supply",
      "outputs": [
        {
          "internalType": "uint256",
          "name": "",
          "type": "uint256"
        }
      ],
      "payable": false,
      "stateMutability": "view",
      "type": "function"
    },
    {
      "constant": true,
      "inputs": [],
      "name": "deliverables_beneficiary",
      "outputs": [
        {
          "internalType": "address",
          "name": "",
          "type": "address"
        }
      ],
      "payable": false,
      "stateMutability": "view",
      "type": "function"
    },
    {
      "constant": true,
      "inputs": [],
      "name": "enhancement_beneficiary",
      "outputs": [
        {
          "internalType": "address",
          "name": "",
          "type": "address"
        }
      ],
      "payable": false,
      "stateMutability": "view",
      "type": "function"
    },
    {
      "constant": true,
      "inputs": [],
      "name": "enhancement_supply",
      "outputs": [
        {
          "internalType": "uint256",
          "name": "",
          "type": "uint256"
        }
      ],
      "payable": false,
      "stateMutability": "view",
      "type": "function"
    },
    {
      "constant": true,
      "inputs": [],
      "name": "exch_pool_beneficiary",
      "outputs": [
        {
          "internalType": "address",
          "name": "",
          "type": "address"
        }
      ],
      "payable": false,
      "stateMutability": "view",
      "type": "function"
    },
    {
      "constant": true,
      "inputs": [],
      "name": "exch_pool_supply",
      "outputs": [
        {
          "internalType": "uint256",
          "name": "",
          "type": "uint256"
        }
      ],
      "payable": false,
      "stateMutability": "view",
      "type": "function"
    },
    {
      "constant": true,
      "inputs": [],
      "name": "foundation_beneficiary",
      "outputs": [
        {
          "internalType": "address",
          "name": "",
          "type": "address"
        }
      ],
      "payable": false,
      "stateMutability": "view",
      "type": "function"
    },
    {
      "constant": true,
      "inputs": [],
      "name": "foundation_supply",
      "outputs": [
        {
          "internalType": "uint256",
          "name": "",
          "type": "uint256"
        }
      ],
      "payable": false,
      "stateMutability": "view",
      "type": "function"
    },
    {
      "constant": true,
      "inputs": [],
      "name": "funding_pool_beneficiary",
      "outputs": [
        {
          "internalType": "address",
          "name": "",
          "type": "address"
        }
      ],
      "payable": false,
      "stateMutability": "view",
      "type": "function"
    },
    {
      "constant": true,
      "inputs": [],
      "name": "funding_pool_supply",
      "outputs": [
        {
          "internalType": "uint256",
          "name": "",
          "type": "uint256"
        }
      ],
      "payable": false,
      "stateMutability": "view",
      "type": "function"
    },
    {
      "constant": false,
      "inputs": [
        {
          "internalType": "address",
          "name": "spender",
          "type": "address"
        },
        {
          "internalType": "uint256",
          "name": "addedValue",
          "type": "uint256"
        }
      ],
      "name": "increaseAllowance",
      "outputs": [
        {
          "internalType": "bool",
          "name": "success",
          "type": "bool"
        }
      ],
      "payable": false,
      "stateMutability": "nonpayable",
      "type": "function"
    },
    {
      "constant": true,
      "inputs": [
        {
          "internalType": "address",
          "name": "account",
          "type": "address"
        }
      ],
      "name": "isPauser",
      "outputs": [
        {
          "internalType": "bool",
          "name": "",
          "type": "bool"
        }
      ],
      "payable": false,
      "stateMutability": "view",
      "type": "function"
    },
    {
      "constant": true,
      "inputs": [],
      "name": "marketing_beneficiary",
      "outputs": [
        {
          "internalType": "address",
          "name": "",
          "type": "address"
        }
      ],
      "payable": false,
      "stateMutability": "view",
      "type": "function"
    },
    {
      "constant": true,
      "inputs": [],
      "name": "marketing_supply",
      "outputs": [
        {
          "internalType": "uint256",
          "name": "",
          "type": "uint256"
        }
      ],
      "payable": false,
      "stateMutability": "view",
      "type": "function"
    },
    {
      "constant": true,
      "inputs": [],
      "name": "name",
      "outputs": [
        {
          "internalType": "string",
          "name": "",
          "type": "string"
        }
      ],
      "payable": false,
      "stateMutability": "view",
      "type": "function"
    },
    {
      "constant": true,
      "inputs": [],
      "name": "network_pool_beneficiary",
      "outputs": [
        {
          "internalType": "address",
          "name": "",
          "type": "address"
        }
      ],
      "payable": false,
      "stateMutability": "view",
      "type": "function"
    },
    {
      "constant": true,
      "inputs": [],
      "name": "network_pool_supply",
      "outputs": [
        {
          "internalType": "uint256",
          "name": "",
          "type": "uint256"
        }
      ],
      "payable": false,
      "stateMutability": "view",
      "type": "function"
    },
    {
      "constant": false,
      "inputs": [],
      "name": "pause",
      "outputs": [],
      "payable": false,
      "stateMutability": "nonpayable",
      "type": "function"
    },
    {
      "constant": true,
      "inputs": [],
      "name": "paused",
      "outputs": [
        {
          "internalType": "bool",
          "name": "",
          "type": "bool"
        }
      ],
      "payable": false,
      "stateMutability": "view",
      "type": "function"
    },
    {
      "constant": false,
      "inputs": [],
      "name": "renouncePauser",
      "outputs": [],
      "payable": false,
      "stateMutability": "nonpayable",
      "type": "function"
    },
    {
      "constant": true,
      "inputs": [],
      "name": "symbol",
      "outputs": [
        {
          "internalType": "string",
          "name": "",
          "type": "string"
        }
      ],
      "payable": false,
      "stateMutability": "view",
      "type": "function"
    },
    {
      "constant": true,
      "inputs": [],
      "name": "team_beneficiary",
      "outputs": [
        {
          "internalType": "address",
          "name": "",
          "type": "address"
        }
      ],
      "payable": false,
      "stateMutability": "view",
      "type": "function"
    },
    {
      "constant": true,
      "inputs": [],
      "name": "team_supply",
      "outputs": [
        {
          "internalType": "uint256",
          "name": "",
          "type": "uint256"
        }
      ],
      "payable": false,
      "stateMutability": "view",
      "type": "function"
    },
    {
      "constant": true,
      "inputs": [],
      "name": "totalSupply",
      "outputs": [
        {
          "internalType": "uint256",
          "name": "",
          "type": "uint256"
        }
      ],
      "payable": false,
      "stateMutability": "view",
      "type": "function"
    },
    {
      "constant": false,
      "inputs": [],
      "name": "unpause",
      "outputs": [],
      "payable": false,
      "stateMutability": "nonpayable",
      "type": "function"
    },
    {
      "constant": false,
      "inputs": [
        {
          "internalType": "address",
          "name": "_to",
          "type": "address"
        },
        {
          "internalType": "uint256",
          "name": "_value",
          "type": "uint256"
        }
      ],
      "name": "transfer",
      "outputs": [
        {
          "internalType": "bool",
          "name": "success",
          "type": "bool"
        }
      ],
      "payable": false,
      "stateMutability": "nonpayable",
      "type": "function"
    },
    {
      "constant": false,
      "inputs": [
        {
          "internalType": "address",
          "name": "_from",
          "type": "address"
        },
        {
          "internalType": "address",
          "name": "_to",
          "type": "address"
        },
        {
          "internalType": "uint256",
          "name": "_value",
          "type": "uint256"
        }
      ],
      "name": "transferFrom",
      "outputs": [
        {
          "internalType": "bool",
          "name": "success",
          "type": "bool"
        }
      ],
      "payable": false,
      "stateMutability": "nonpayable",
      "type": "function"
    }
  ],
  "bytecode": "0x60806040523480156200001157600080fd5b5060405162002f7538038062002f7583398181016040526101008110156200003857600080fd5b8101908080519060200190929190805190602001909291908051906020019092919080519060200190929190805190602001909291908051906020019092919080519060200190929190805190602001909291905050506040518060400160405280600b81526020017f556e69726973546f6b656e0000000000000000000000000000000000000000008152506040518060400160405280600381526020017f55434f000000000000000000000000000000000000000000000000000000000081525060126200010e33620009ea60201b60201c565b6000600460006101000a81548160ff02191690831515021790555082600590805190602001906200014192919062000d15565b5081600690805190602001906200015a92919062000d15565b5080600760006101000a81548160ff021916908360ff160217905550505050600073ffffffffffffffffffffffffffffffffffffffff168873ffffffffffffffffffffffffffffffffffffffff16141562000201576040517f08c379a000000000000000000000000000000000000000000000000000000000815260040180806020018281038252602881526020018062002eb36028913960400191505060405180910390fd5b600073ffffffffffffffffffffffffffffffffffffffff168773ffffffffffffffffffffffffffffffffffffffff16141562000289576040517f08c379a000000000000000000000000000000000000000000000000000000000815260040180806020018281038252602881526020018062002e666028913960400191505060405180910390fd5b600073ffffffffffffffffffffffffffffffffffffffff168673ffffffffffffffffffffffffffffffffffffffff16141562000311576040517f08c379a000000000000000000000000000000000000000000000000000000000815260040180806020018281038252602881526020018062002f016028913960400191505060405180910390fd5b600073ffffffffffffffffffffffffffffffffffffffff168573ffffffffffffffffffffffffffffffffffffffff16141562000399576040517f08c379a000000000000000000000000000000000000000000000000000000000815260040180806020018281038252602781526020018062002f296027913960400191505060405180910390fd5b600073ffffffffffffffffffffffffffffffffffffffff168473ffffffffffffffffffffffffffffffffffffffff1614156200043d576040517f08c379a00000000000000000000000000000000000000000000000000000000081526004018080602001828103825260208152602001807f496e76616c6964207465616d2062656e6566696369617279206164647265737381525060200191505060405180910390fd5b600073ffffffffffffffffffffffffffffffffffffffff168373ffffffffffffffffffffffffffffffffffffffff161415620004c5576040517f08c379a000000000000000000000000000000000000000000000000000000000815260040180806020018281038252602581526020018062002f506025913960400191505060405180910390fd5b600073ffffffffffffffffffffffffffffffffffffffff168273ffffffffffffffffffffffffffffffffffffffff1614156200054d576040517f08c379a000000000000000000000000000000000000000000000000000000000815260040180806020018281038252602581526020018062002e8e6025913960400191505060405180910390fd5b600073ffffffffffffffffffffffffffffffffffffffff168173ffffffffffffffffffffffffffffffffffffffff161415620005d5576040517f08c379a000000000000000000000000000000000000000000000000000000000815260040180806020018281038252602681526020018062002edb6026913960400191505060405180910390fd5b87600760016101000a81548173ffffffffffffffffffffffffffffffffffffffff021916908373ffffffffffffffffffffffffffffffffffffffff16021790555086600860006101000a81548173ffffffffffffffffffffffffffffffffffffffff021916908373ffffffffffffffffffffffffffffffffffffffff16021790555085600960006101000a81548173ffffffffffffffffffffffffffffffffffffffff021916908373ffffffffffffffffffffffffffffffffffffffff16021790555084600a60006101000a81548173ffffffffffffffffffffffffffffffffffffffff021916908373ffffffffffffffffffffffffffffffffffffffff16021790555083600b60006101000a81548173ffffffffffffffffffffffffffffffffffffffff021916908373ffffffffffffffffffffffffffffffffffffffff16021790555082600c60006101000a81548173ffffffffffffffffffffffffffffffffffffffff021916908373ffffffffffffffffffffffffffffffffffffffff16021790555081600d60006101000a81548173ffffffffffffffffffffffffffffffffffffffff021916908373ffffffffffffffffffffffffffffffffffffffff16021790555080600e60006101000a81548173ffffffffffffffffffffffffffffffffffffffff021916908373ffffffffffffffffffffffffffffffffffffffff1602179055506200081d600760019054906101000a900473ffffffffffffffffffffffffffffffffffffffff166b0c57d476f1d9e9de6c00000062000a4b60201b60201c565b6200085d600860009054906101000a900473ffffffffffffffffffffffffffffffffffffffff166b07a025705a712ea43800000062000a4b60201b60201c565b6200089d600960009054906101000a900473ffffffffffffffffffffffffffffffffffffffff166b04b7af069768bb3a3400000062000a4b60201b60201c565b620008dd600a60009054906101000a900473ffffffffffffffffffffffffffffffffffffffff166b02e87669c308736a0400000062000a4b60201b60201c565b6200091d600b60009054906101000a900473ffffffffffffffffffffffffffffffffffffffff166b01cf389cd46047d03000000062000a4b60201b60201c565b6200095d600c60009054906101000a900473ffffffffffffffffffffffffffffffffffffffff166b01193dcceea82b99d400000062000a4b60201b60201c565b6200099d600d60009054906101000a900473ffffffffffffffffffffffffffffffffffffffff166b01193dcceea82b99d400000062000a4b60201b60201c565b620009dc600e60009054906101000a900473ffffffffffffffffffffffffffffffffffffffff166ab5facfe5b81c365c00000062000a4b60201b60201c565b505050505050505062000dc4565b62000a0581600362000bac60201b62001d081790919060201c565b8073ffffffffffffffffffffffffffffffffffffffff167f6719d08c1888103bea251a4ed56406bd0c3e69723c8a1686e017e7bbe159b6f860405160405180910390a250565b600073ffffffffffffffffffffffffffffffffffffffff168273ffffffffffffffffffffffffffffffffffffffff16141562000a8657600080fd5b62000aa28160025462000c6260201b620017401790919060201c565b60028190555062000b00816000808573ffffffffffffffffffffffffffffffffffffffff1673ffffffffffffffffffffffffffffffffffffffff1681526020019081526020016000205462000c6260201b620017401790919060201c565b6000808473ffffffffffffffffffffffffffffffffffffffff1673ffffffffffffffffffffffffffffffffffffffff168152602001908152602001600020819055508173ffffffffffffffffffffffffffffffffffffffff16600073ffffffffffffffffffffffffffffffffffffffff167fddf252ad1be2c89b69c2b068fc378daa952ba7f163c4a11628f55a4df523b3ef836040518082815260200191505060405180910390a35050565b600073ffffffffffffffffffffffffffffffffffffffff168173ffffffffffffffffffffffffffffffffffffffff16141562000be757600080fd5b62000bf9828262000c8260201b60201c565b1562000c0457600080fd5b60018260000160008373ffffffffffffffffffffffffffffffffffffffff1673ffffffffffffffffffffffffffffffffffffffff16815260200190815260200160002060006101000a81548160ff0219169083151502179055505050565b60008082840190508381101562000c7857600080fd5b8091505092915050565b60008073ffffffffffffffffffffffffffffffffffffffff168273ffffffffffffffffffffffffffffffffffffffff16141562000cbe57600080fd5b8260000160008373ffffffffffffffffffffffffffffffffffffffff1673ffffffffffffffffffffffffffffffffffffffff16815260200190815260200160002060009054906101000a900460ff16905092915050565b828054600181600116156101000203166002900490600052602060002090601f016020900481019282601f1062000d5857805160ff191683800117855562000d89565b8280016001018555821562000d89579182015b8281111562000d8857825182559160200191906001019062000d6b565b5b50905062000d98919062000d9c565b5090565b62000dc191905b8082111562000dbd57600081600090555060010162000da3565b5090565b90565b6120928062000dd46000396000f3fe608060405234801561001057600080fd5b50600436106101fb5760003560e01c8063621005d71161011a5780638456cb59116100ad578063a9059cbb1161007c578063a9059cbb146108c6578063adcde06f1461092c578063dd62ed3e14610976578063dee28f78146109ee578063fe28a81514610a0c576101fb565b80638456cb59146107b557806395d89b41146107bf578063a457c2d714610842578063a8942ed1146108a8576101fb565b806370a08231116100e957806370a08231146106dd57806370b86f2314610735578063767c2e2d1461075357806382dc1ec414610771576101fb565b8063621005d714610621578063680a8ca51461066b5780636cc5c0fd146106895780636ef8d66d146106d3576101fb565b80633695f71c116101925780633f4ba83a116101615780633f4ba83a1461057b57806346fbf68e1461058557806353d4edba146105e15780635c975abb146105ff576101fb565b80633695f71c1461046357806336ec6b8e146104ad57806339509351146104f75780633a34b6c61461055d576101fb565b80631c5e933f116101ce5780631c5e933f1461035157806323b872dd1461036f5780632f74c82e146103f5578063313ce5671461043f576101fb565b806306fdde0314610200578063095ea7b31461028357806312d8829f146102e957806318160ddd14610333575b600080fd5b610208610a56565b6040518080602001828103825283818151815260200191508051906020019080838360005b8381101561024857808201518184015260208101905061022d565b50505050905090810190601f1680156102755780820380516001836020036101000a031916815260200191505b509250505060405180910390f35b6102cf6004803603604081101561029957600080fd5b81019080803573ffffffffffffffffffffffffffffffffffffffff16906020019092919080359060200190929190505050610af8565b604051808215151515815260200191505060405180910390f35b6102f1610b26565b604051808273ffffffffffffffffffffffffffffffffffffffff1673ffffffffffffffffffffffffffffffffffffffff16815260200191505060405180910390f35b61033b610b4c565b6040518082815260200191505060405180910390f35b610359610b56565b6040518082815260200191505060405180910390f35b6103db6004803603606081101561038557600080fd5b81019080803573ffffffffffffffffffffffffffffffffffffffff169060200190929190803573ffffffffffffffffffffffffffffffffffffffff16906020019092919080359060200190929190505050610b66565b604051808215151515815260200191505060405180910390f35b6103fd610e90565b604051808273ffffffffffffffffffffffffffffffffffffffff1673ffffffffffffffffffffffffffffffffffffffff16815260200191505060405180910390f35b610447610eb6565b604051808260ff1660ff16815260200191505060405180910390f35b61046b610ecd565b604051808273ffffffffffffffffffffffffffffffffffffffff1673ffffffffffffffffffffffffffffffffffffffff16815260200191505060405180910390f35b6104b5610ef3565b604051808273ffffffffffffffffffffffffffffffffffffffff1673ffffffffffffffffffffffffffffffffffffffff16815260200191505060405180910390f35b6105436004803603604081101561050d57600080fd5b81019080803573ffffffffffffffffffffffffffffffffffffffff16906020019092919080359060200190929190505050610f19565b604051808215151515815260200191505060405180910390f35b610565610f47565b6040518082815260200191505060405180910390f35b610583610f57565b005b6105c76004803603602081101561059b57600080fd5b81019080803573ffffffffffffffffffffffffffffffffffffffff169060200190929190505050611002565b604051808215151515815260200191505060405180910390f35b6105e961101f565b6040518082815260200191505060405180910390f35b61060761102f565b604051808215151515815260200191505060405180910390f35b610629611046565b604051808273ffffffffffffffffffffffffffffffffffffffff1673ffffffffffffffffffffffffffffffffffffffff16815260200191505060405180910390f35b61067361106c565b6040518082815260200191505060405180910390f35b61069161107c565b604051808273ffffffffffffffffffffffffffffffffffffffff1673ffffffffffffffffffffffffffffffffffffffff16815260200191505060405180910390f35b6106db6110a2565b005b61071f600480360360208110156106f357600080fd5b81019080803573ffffffffffffffffffffffffffffffffffffffff1690602001909291905050506110ad565b6040518082815260200191505060405180910390f35b61073d6110f5565b6040518082815260200191505060405180910390f35b61075b611105565b6040518082815260200191505060405180910390f35b6107b36004803603602081101561078757600080fd5b81019080803573ffffffffffffffffffffffffffffffffffffffff169060200190929190505050611115565b005b6107bd611133565b005b6107c76111df565b6040518080602001828103825283818151815260200191508051906020019080838360005b838110156108075780820151818401526020810190506107ec565b50505050905090810190601f1680156108345780820380516001836020036101000a031916815260200191505b509250505060405180910390f35b61088e6004803603604081101561085857600080fd5b81019080803573ffffffffffffffffffffffffffffffffffffffff16906020019092919080359060200190929190505050611281565b604051808215151515815260200191505060405180910390f35b6108b06112af565b6040518082815260200191505060405180910390f35b610912600480360360408110156108dc57600080fd5b81019080803573ffffffffffffffffffffffffffffffffffffffff169060200190929190803590602001909291905050506112be565b604051808215151515815260200191505060405180910390f35b6109346115e6565b604051808273ffffffffffffffffffffffffffffffffffffffff1673ffffffffffffffffffffffffffffffffffffffff16815260200191505060405180910390f35b6109d86004803603604081101561098c57600080fd5b81019080803573ffffffffffffffffffffffffffffffffffffffff169060200190929190803573ffffffffffffffffffffffffffffffffffffffff16906020019092919050505061160c565b6040518082815260200191505060405180910390f35b6109f6611693565b6040518082815260200191505060405180910390f35b610a146116a3565b604051808273ffffffffffffffffffffffffffffffffffffffff1673ffffffffffffffffffffffffffffffffffffffff16815260200191505060405180910390f35b606060058054600181600116156101000203166002900480601f016020809104026020016040519081016040528092919081815260200182805460018160011615610100020316600290048015610aee5780601f10610ac357610100808354040283529160200191610aee565b820191906000526020600020905b815481529060010190602001808311610ad157829003601f168201915b5050505050905090565b6000600460009054906101000a900460ff1615610b1457600080fd5b610b1e83836116c9565b905092915050565b600c60009054906101000a900473ffffffffffffffffffffffffffffffffffffffff1681565b6000600254905090565b6b04b7af069768bb3a3400000081565b60008382600a60009054906101000a900473ffffffffffffffffffffffffffffffffffffffff1673ffffffffffffffffffffffffffffffffffffffff168273ffffffffffffffffffffffffffffffffffffffff161415610c11576040517f08c379a0000000000000000000000000000000000000000000000000000000008152600401808060200182810382526032815260200180611fef6032913960400191505060405180910390fd5b600860009054906101000a900473ffffffffffffffffffffffffffffffffffffffff1673ffffffffffffffffffffffffffffffffffffffff168273ffffffffffffffffffffffffffffffffffffffff161415610d47576000610c94600860009054906101000a900473ffffffffffffffffffffffffffffffffffffffff166110ad565b6b07a025705a712ea438000000039050610cd76064610cc9600a6b07a025705a712ea4380000006116e090919063ffffffff16565b61171a90919063ffffffff16565b610cea838361174090919063ffffffff16565b1115610d41576040517f08c379a000000000000000000000000000000000000000000000000000000000815260040180806020018281038252603d815260200180612021603d913960400191505060405180910390fd5b50610e7a565b600960009054906101000a900473ffffffffffffffffffffffffffffffffffffffff1673ffffffffffffffffffffffffffffffffffffffff168273ffffffffffffffffffffffffffffffffffffffff161415610e79576000610dca600960009054906101000a900473ffffffffffffffffffffffffffffffffffffffff166110ad565b6b04b7af069768bb3a34000000039050610e0d6064610dff600a6b04b7af069768bb3a340000006116e090919063ffffffff16565b61171a90919063ffffffff16565b610e20838361174090919063ffffffff16565b1115610e77576040517f08c379a0000000000000000000000000000000000000000000000000000000008152600401808060200182810382526039815260200180611fb66039913960400191505060405180910390fd5b505b5b610e8586868661175f565b925050509392505050565b600e60009054906101000a900473ffffffffffffffffffffffffffffffffffffffff1681565b6000600760009054906101000a900460ff16905090565b600a60009054906101000a900473ffffffffffffffffffffffffffffffffffffffff1681565b600b60009054906101000a900473ffffffffffffffffffffffffffffffffffffffff1681565b6000600460009054906101000a900460ff1615610f3557600080fd5b610f3f838361178f565b905092915050565b6b01cf389cd46047d03000000081565b610f6033611002565b610f6957600080fd5b600460009054906101000a900460ff16610f8257600080fd5b6000600460006101000a81548160ff0219169083151502179055507f5db9ee0a495bf2e6ff9c91a7834c1ba4fdd244a5e8aa4e537bd38aeae4b073aa33604051808273ffffffffffffffffffffffffffffffffffffffff1673ffffffffffffffffffffffffffffffffffffffff16815260200191505060405180910390a1565b600061101882600361183490919063ffffffff16565b9050919050565b6b01193dcceea82b99d400000081565b6000600460009054906101000a900460ff16905090565b600d60009054906101000a900473ffffffffffffffffffffffffffffffffffffffff1681565b6b07a025705a712ea43800000081565b600860009054906101000a900473ffffffffffffffffffffffffffffffffffffffff1681565b6110ab336118c6565b565b60008060008373ffffffffffffffffffffffffffffffffffffffff1673ffffffffffffffffffffffffffffffffffffffff168152602001908152602001600020549050919050565b6b0c57d476f1d9e9de6c00000081565b6b02e87669c308736a0400000081565b61111e33611002565b61112757600080fd5b61113081611920565b50565b61113c33611002565b61114557600080fd5b600460009054906101000a900460ff161561115f57600080fd5b6001600460006101000a81548160ff0219169083151502179055507f62e78cea01bee320cd4e420270b5ea74000d11b0c9f74754ebdbfc544b05a25833604051808273ffffffffffffffffffffffffffffffffffffffff1673ffffffffffffffffffffffffffffffffffffffff16815260200191505060405180910390a1565b606060068054600181600116156101000203166002900480601f0160208091040260200160405190810160405280929190818152602001828054600181600116156101000203166002900480156112775780601f1061124c57610100808354040283529160200191611277565b820191906000526020600020905b81548152906001019060200180831161125a57829003601f168201915b5050505050905090565b6000600460009054906101000a900460ff161561129d57600080fd5b6112a7838361197a565b905092915050565b6ab5facfe5b81c365c00000081565b60003382600a60009054906101000a900473ffffffffffffffffffffffffffffffffffffffff1673ffffffffffffffffffffffffffffffffffffffff168273ffffffffffffffffffffffffffffffffffffffff161415611369576040517f08c379a0000000000000000000000000000000000000000000000000000000008152600401808060200182810382526032815260200180611fef6032913960400191505060405180910390fd5b600860009054906101000a900473ffffffffffffffffffffffffffffffffffffffff1673ffffffffffffffffffffffffffffffffffffffff168273ffffffffffffffffffffffffffffffffffffffff16141561149f5760006113ec600860009054906101000a900473ffffffffffffffffffffffffffffffffffffffff166110ad565b6b07a025705a712ea43800000003905061142f6064611421600a6b07a025705a712ea4380000006116e090919063ffffffff16565b61171a90919063ffffffff16565b611442838361174090919063ffffffff16565b1115611499576040517f08c379a000000000000000000000000000000000000000000000000000000000815260040180806020018281038252603d815260200180612021603d913960400191505060405180910390fd5b506115d2565b600960009054906101000a900473ffffffffffffffffffffffffffffffffffffffff1673ffffffffffffffffffffffffffffffffffffffff168273ffffffffffffffffffffffffffffffffffffffff1614156115d1576000611522600960009054906101000a900473ffffffffffffffffffffffffffffffffffffffff166110ad565b6b04b7af069768bb3a340000000390506115656064611557600a6b04b7af069768bb3a340000006116e090919063ffffffff16565b61171a90919063ffffffff16565b611578838361174090919063ffffffff16565b11156115cf576040517f08c379a0000000000000000000000000000000000000000000000000000000008152600401808060200182810382526039815260200180611fb66039913960400191505060405180910390fd5b505b5b6115dc8585611a1f565b9250505092915050565b600760019054906101000a900473ffffffffffffffffffffffffffffffffffffffff1681565b6000600160008473ffffffffffffffffffffffffffffffffffffffff1673ffffffffffffffffffffffffffffffffffffffff16815260200190815260200160002060008373ffffffffffffffffffffffffffffffffffffffff1673ffffffffffffffffffffffffffffffffffffffff16815260200190815260200160002054905092915050565b6b01193dcceea82b99d400000081565b600960009054906101000a900473ffffffffffffffffffffffffffffffffffffffff1681565b60006116d6338484611a4d565b6001905092915050565b6000808314156116f35760009050611714565b600082840290508284828161170457fe5b041461170f57600080fd5b809150505b92915050565b600080821161172857600080fd5b600082848161173357fe5b0490508091505092915050565b60008082840190508381101561175557600080fd5b8091505092915050565b6000600460009054906101000a900460ff161561177b57600080fd5b611786848484611bac565b90509392505050565b600061182a338461182585600160003373ffffffffffffffffffffffffffffffffffffffff1673ffffffffffffffffffffffffffffffffffffffff16815260200190815260200160002060008973ffffffffffffffffffffffffffffffffffffffff1673ffffffffffffffffffffffffffffffffffffffff1681526020019081526020016000205461174090919063ffffffff16565b611a4d565b6001905092915050565b60008073ffffffffffffffffffffffffffffffffffffffff168273ffffffffffffffffffffffffffffffffffffffff16141561186f57600080fd5b8260000160008373ffffffffffffffffffffffffffffffffffffffff1673ffffffffffffffffffffffffffffffffffffffff16815260200190815260200160002060009054906101000a900460ff16905092915050565b6118da816003611c5d90919063ffffffff16565b8073ffffffffffffffffffffffffffffffffffffffff167fcd265ebaf09df2871cc7bd4133404a235ba12eff2041bb89d9c714a2621c7c7e60405160405180910390a250565b611934816003611d0890919063ffffffff16565b8073ffffffffffffffffffffffffffffffffffffffff167f6719d08c1888103bea251a4ed56406bd0c3e69723c8a1686e017e7bbe159b6f860405160405180910390a250565b6000611a153384611a1085600160003373ffffffffffffffffffffffffffffffffffffffff1673ffffffffffffffffffffffffffffffffffffffff16815260200190815260200160002060008973ffffffffffffffffffffffffffffffffffffffff1673ffffffffffffffffffffffffffffffffffffffff16815260200190815260200160002054611db490919063ffffffff16565b611a4d565b6001905092915050565b6000600460009054906101000a900460ff1615611a3b57600080fd5b611a458383611dd4565b905092915050565b600073ffffffffffffffffffffffffffffffffffffffff168273ffffffffffffffffffffffffffffffffffffffff161415611a8757600080fd5b600073ffffffffffffffffffffffffffffffffffffffff168373ffffffffffffffffffffffffffffffffffffffff161415611ac157600080fd5b80600160008573ffffffffffffffffffffffffffffffffffffffff1673ffffffffffffffffffffffffffffffffffffffff16815260200190815260200160002060008473ffffffffffffffffffffffffffffffffffffffff1673ffffffffffffffffffffffffffffffffffffffff168152602001908152602001600020819055508173ffffffffffffffffffffffffffffffffffffffff168373ffffffffffffffffffffffffffffffffffffffff167f8c5be1e5ebec7d5bd14f71427d1e84f3dd0314c0f7b2291e5b200ac8c7c3b925836040518082815260200191505060405180910390a3505050565b6000611bb9848484611deb565b611c528433611c4d85600160008a73ffffffffffffffffffffffffffffffffffffffff1673ffffffffffffffffffffffffffffffffffffffff16815260200190815260200160002060003373ffffffffffffffffffffffffffffffffffffffff1673ffffffffffffffffffffffffffffffffffffffff16815260200190815260200160002054611db490919063ffffffff16565b611a4d565b600190509392505050565b600073ffffffffffffffffffffffffffffffffffffffff168173ffffffffffffffffffffffffffffffffffffffff161415611c9757600080fd5b611ca18282611834565b611caa57600080fd5b60008260000160008373ffffffffffffffffffffffffffffffffffffffff1673ffffffffffffffffffffffffffffffffffffffff16815260200190815260200160002060006101000a81548160ff0219169083151502179055505050565b600073ffffffffffffffffffffffffffffffffffffffff168173ffffffffffffffffffffffffffffffffffffffff161415611d4257600080fd5b611d4c8282611834565b15611d5657600080fd5b60018260000160008373ffffffffffffffffffffffffffffffffffffffff1673ffffffffffffffffffffffffffffffffffffffff16815260200190815260200160002060006101000a81548160ff0219169083151502179055505050565b600082821115611dc357600080fd5b600082840390508091505092915050565b6000611de1338484611deb565b6001905092915050565b600073ffffffffffffffffffffffffffffffffffffffff168273ffffffffffffffffffffffffffffffffffffffff161415611e2557600080fd5b611e76816000808673ffffffffffffffffffffffffffffffffffffffff1673ffffffffffffffffffffffffffffffffffffffff16815260200190815260200160002054611db490919063ffffffff16565b6000808573ffffffffffffffffffffffffffffffffffffffff1673ffffffffffffffffffffffffffffffffffffffff16815260200190815260200160002081905550611f09816000808573ffffffffffffffffffffffffffffffffffffffff1673ffffffffffffffffffffffffffffffffffffffff1681526020019081526020016000205461174090919063ffffffff16565b6000808473ffffffffffffffffffffffffffffffffffffffff1673ffffffffffffffffffffffffffffffffffffffff168152602001908152602001600020819055508173ffffffffffffffffffffffffffffffffffffffff168373ffffffffffffffffffffffffffffffffffffffff167fddf252ad1be2c89b69c2b068fc378daa952ba7f163c4a11628f55a4df523b3ef836040518082815260200191505060405180910390a350505056fe4f6e6c7920313025206f6620746865206e6574776f726b20737570706c7920697320756e6c6f636b6564206265666f7265206d61696e6e6574456e68616e63656d656e742077616c6c6574206973206c6f636b656420666f726576657220756e74696c206d61696e6e65744f6e6c7920313025206f66207468652064656c6976657261626c6520737570706c7920697320756e6c6f636b6564206265666f7265206d61696e6e6574a265627a7a723158201e9aa65b2b258a79f5ad214aadd6ca7e6753c77071af902bb4c9e6a95356408e64736f6c63430005100032496e76616c69642064656c6976657261626c65732062656e65666963696172792061646472657373496e76616c6964206d61726b6574696e672062656e65666963696172792061646472657373496e76616c69642066756e64696e6720706f6f6c2062656e65666963696172792061646472657373496e76616c696420666f756e646174696f6e2062656e65666963696172792061646472657373496e76616c6964206e6574776f726b20706f6f6c2062656e65666963696172792061646472657373496e76616c696420656e68616e63656d656e742062656e65666963696172792061646472657373496e76616c6964206578636820706f6f6c2062656e65666963696172792061646472657373",
  "source": "pragma solidity ^0.5.0;\n\nimport \"openzeppelin-solidity/contracts/token/ERC20/ERC20Detailed.sol\";\nimport \"openzeppelin-solidity/contracts/math/SafeMath.sol\";\nimport \"openzeppelin-solidity/contracts/token/ERC20/ERC20Pausable.sol\";\n\ncontract UnirisToken is ERC20Pausable, ERC20Detailed {\n\n  //38.2% for the sale\n  uint256 public constant funding_pool_supply = 3820000000000000000000000000;\n\n  //23.6% for the deliverables (10% will be available before the mainnet for early contributions)\n  uint256 public constant deliverable_supply = 2360000000000000000000000000;\n\n  //14.6% for the network pool (10% will be available before the mainnet for early nodes)\n  uint256 public constant network_pool_supply = 1460000000000000000000000000;\n\n  //9% for the enhancements (locked until mainnet)\n  uint256 public constant enhancement_supply = 900000000000000000000000000;\n\n  //5.6% for the team\n  uint256 public constant team_supply = 560000000000000000000000000;\n\n  //3.4% for the Exch. Pool\n  uint256 public constant exch_pool_supply = 340000000000000000000000000;\n\n  //3.4% for the marketing\n  uint256 public constant marketing_supply = 340000000000000000000000000;\n\n  //2.2% for the foundation\n  uint256 public constant foundation_supply = 220000000000000000000000000;\n\n  address public funding_pool_beneficiary;\n  address public deliverables_beneficiary;\n  address public network_pool_beneficiary;\n  address public enhancement_beneficiary;\n  address public team_beneficiary;\n  address public exch_pool_beneficiary;\n  address public marketing_beneficiary;\n  address public foundation_beneficiary;\n\n  modifier onlyUnlocked(address from, uint256 value) {\n    // Enhancement wallet is locked until the mainnet, no transfer possible\n    // The swap will be done directly on the Uniris chain\n    require(from != enhancement_beneficiary, \"Enhancement wallet is locked forever until mainnet\");\n\n    //Deliverable and network pool are only unlocked for 10% of their supply\n    //These 10% will serve to rewards early contributors and nodes before mainnet.\n    //The rest is locked until the main, no transfer possible\n    //The swap will be done directly on the Uniris chain\n    if (from == deliverables_beneficiary) {\n      uint256 _delivered = deliverable_supply - balanceOf(deliverables_beneficiary);\n      require(_delivered.add(value) <= deliverable_supply.mul(10).div(100), \"Only 10% of the deliverable supply is unlocked before mainnet\");\n    }\n    else if (from == network_pool_beneficiary) {\n      uint256 _delivered = network_pool_supply - balanceOf(network_pool_beneficiary);\n      require(_delivered.add(value) <= network_pool_supply.mul(10).div(100), \"Only 10% of the network supply is unlocked before mainnet\");\n    }\n    _;\n  }\n\n  constructor(\n    address _funding_pool_beneficiary,\n    address _deliverables_beneficiary,\n    address _network_pool_beneficiary,\n    address _enhancement_beneficiary,\n    address _team_beneficiary,\n    address _exch_pool_beneficiary,\n    address _marketing_beneficiary,\n    address _foundation_beneficiary\n    ) public ERC20Detailed(\"UnirisToken\", \"UCO\", 18) {\n\n    require(_funding_pool_beneficiary != address(0), \"Invalid funding pool beneficiary address\");\n    require(_deliverables_beneficiary != address(0), \"Invalid deliverables beneficiary address\");\n    require(_network_pool_beneficiary != address(0), \"Invalid network pool beneficiary address\");\n    require(_enhancement_beneficiary != address(0), \"Invalid enhancement beneficiary address\");\n    require(_team_beneficiary != address(0), \"Invalid team beneficiary address\");\n    require(_exch_pool_beneficiary != address(0), \"Invalid exch pool beneficiary address\");\n    require(_marketing_beneficiary != address(0), \"Invalid marketing beneficiary address\");\n    require(_foundation_beneficiary != address(0), \"Invalid foundation beneficiary address\");\n\n    funding_pool_beneficiary = _funding_pool_beneficiary;\n    deliverables_beneficiary = _deliverables_beneficiary;\n    network_pool_beneficiary = _network_pool_beneficiary;\n    enhancement_beneficiary = _enhancement_beneficiary;\n    team_beneficiary = _team_beneficiary;\n    exch_pool_beneficiary = _exch_pool_beneficiary;\n    marketing_beneficiary = _marketing_beneficiary;\n    foundation_beneficiary = _foundation_beneficiary;\n\n    _mint(funding_pool_beneficiary, funding_pool_supply);\n    _mint(deliverables_beneficiary, deliverable_supply);\n    _mint(network_pool_beneficiary, network_pool_supply);\n    _mint(enhancement_beneficiary, enhancement_supply);\n    _mint(team_beneficiary, team_supply);\n    _mint(exch_pool_beneficiary, exch_pool_supply);\n    _mint(marketing_beneficiary, marketing_supply);\n    _mint(foundation_beneficiary, foundation_supply);\n  }\n\n  function transfer(address _to, uint256 _value) public onlyUnlocked(msg.sender, _value) returns (bool success) {\n    return super.transfer(_to, _value);\n  }\n\n  function transferFrom(address _from, address _to, uint256 _value) public onlyUnlocked(_from, _value) returns (bool success) {\n    return super.transferFrom(_from, _to, _value);\n  }\n}\n",
  "sourcePath": "/Users/samuelmanzanera/Documents/code/js/eth-atomic-swap/truffle/contracts/UnirisToken.sol",
  "compiler": {
    "name": "solc",
    "version": "0.5.16+commit.9c3226ce.Emscripten.clang"
  },
  "schemaVersion": "3.4.10",
  "updatedAt": "2022-12-19T20:41:28.580Z",
  "networkType": "ethereum",
  "devdoc": {
    "methods": {
      "allowance(address,address)": {
        "details": "Function to check the amount of tokens that an owner allowed to a spender.",
        "params": {
          "owner": "address The address which owns the funds.",
          "spender": "address The address which will spend the funds."
        },
        "return": "A uint256 specifying the amount of tokens still available for the spender."
      },
      "balanceOf(address)": {
        "details": "Gets the balance of the specified address.",
        "params": {
          "owner": "The address to query the balance of."
        },
        "return": "A uint256 representing the amount owned by the passed address."
      },
      "decimals()": {
        "return": "the number of decimals of the token."
      },
      "name()": {
        "return": "the name of the token."
      },
      "pause()": {
        "details": "called by the owner to pause, triggers stopped state"
      },
      "paused()": {
        "return": "true if the contract is paused, false otherwise."
      },
      "symbol()": {
        "return": "the symbol of the token."
      },
      "totalSupply()": {
        "details": "Total number of tokens in existence"
      },
      "unpause()": {
        "details": "called by the owner to unpause, returns to normal state"
      }
    }
  },
  "userdoc": {
    "methods": {}
  }
}